:100000000C942A000C9447000C9447000C94470071
:100010000C9447000C9447000C9447000C94470044
:100020000C9447000C9447000C94FB0F0C942E107A
:100030000C9447000C9418120C944B120C947E12E2
:100040000C9447000C9447000C9447000C94470014
:100050000C94470011241FBECFE5D8E0DEBFCDBF12
:1000600014E0A0E6B0E0E6E1F1E302C005900D92F5
:10007000A034B107D9F714E0A0E4B4E001C01D92A8
:10008000A435B107E1F70E94F3170C9489180C947A
:100090000000EF92FF920F931F937B018C0120E0F1
:1000A00030E040E05FE40E94490388238CF0C801FF
:1000B000B70120E030E040E05FE40E94C1010E940F
:1000C000A9039B01AC01205030404040504806C07D
:1000D000C801B7010E94A9039B01AC01B901CA0183
:1000E0001F910F91FF90EF900895A0E0B0E0EBE733
:1000F000F0E00C944918DC012B01FA019C9192303C
:1001000008F439C1EB018881823008F433C194309E
:1001100069F4843009F02FC111969C91119789815F
:10012000981709F428C1AFE6B3E025C1843009F47B
:1001300021C18230A9F4923009F01DC19A01AD01AC
:1001400088E0EA010990AE01E90109929E0181501F
:10015000C1F7E201898111969C918923818308C1AD
:10016000923009F407C112962D903C901397EB0141
:100170008A819B811496AD90BD90CD90DC901797AD
:10018000EC80FD800E811F819101281B390BB90184
:1001900037FF04C066277727621B730B6032710537
:1001A0000CF061C0121613066CF537014801062EDB
:1001B00004C096948794779467940A94D2F721E0C8
:1001C00030E040E050E004C0220F331F441F551FB1
:1001D0006A95D2F721503040404050402E213F21B7
:1001E00040235123211531054105510521F021E01E
:1001F00030E040E050E079018A01E628F72808293C
:1002000019293CC0232BD1F1260E371E350146019A
:10021000062E04C096948794779467940A94D2F734
:1002200021E030E040E050E004C0220F331F441FC3
:10023000551F6A95D2F721503040404050402A2146
:100240003B214C215D21211531054105510521F04E
:1002500021E030E040E050E059016A01A628B728CB
:10026000C828D9280BC0821593052CF01C01AA249C
:10027000BB24650103C0EE24FF24870111969C91E5
:10028000D20111968C91981709F445C0992339F041
:10029000A80197012A193B094C095D0906C0A6016E
:1002A00095012E193F09400B510B57FD08C01182D3
:1002B0003382228224833583468357831DC081E0A5
:1002C00081833382228288279927DC01821B930B4A
:1002D000A40BB50B84839583A683B7830DC0220F2F
:1002E000331F441F551F24833583468357838281E0
:1002F000938101979383828324813581468157813D
:10030000DA01C9010197A109B1098F5F9F4FAF4F72
:10031000BF4328F30BC0918333822282EA0CFB1C7B
:100320000C1D1D1DE482F5820683178383E0808304
:10033000248135814681578157FF1AC0C901AA27F8
:1003400097FDA095BA2F81709070A070B0705695EF
:10035000479537952795822B932BA42BB52B848318
:100360009583A683B7838281938101969383828349
:10037000DF0101C0D201CD01CDB7DEB7E2E10C94BF
:100380006518A0E2B0E0E7ECF1E00C945518698341
:100390007A838B839C832D833E834F835887E9E048
:1003A000EE2EF12CEC0EFD1ECE010196B7010E943F
:1003B000D2048E010F5E1F4FCE010596B8010E9438
:1003C000D2048A8991E089278A8BC701B801AE01DE
:1003D000475E5F4F0E9475000E94FD03A096E6E015
:1003E0000C947118A0E2B0E0E8EFF1E00C9455181D
:1003F00069837A838B839C832D833E834F835887C5
:10040000F9E0EF2EF12CEC0EFD1ECE010196B701A6
:100410000E94D2048E010F5E1F4FCE010596B801D7
:100420000E94D204C701B801AE01475E5F4F0E942F
:1004300075000E94FD03A096E6E00C947118A0E2FE
:10044000B0E0E5E2F2E00C94491869837A838B838B
:100450009C832D833E834F835887CE010196BE0136
:10046000675F7F4F0E94D204CE010596BE016F5E8A
:100470007F4F0E94D2049985923088F0898982301A
:10048000C8F0943019F4823051F404C0843029F457
:10049000923081F48FE693E0C6C0923049F420E0B8
:1004A0009A858A89981321E02A87CE010996BBC0D4
:1004B000823049F420E09A858A89981321E02A8BBA
:1004C000CE014196B0C02D843E844F8458886D88FB
:1004D0007E888F88988CEE24FF248701AA24BB2471
:1004E000650140E050E060E070E0E0E0F0E0C10174
:1004F00081709070892BE9F0E60CF71C081D191D1E
:100500009A01AB012A0D3B1D4C1D5D1D80E090E062
:10051000A0E0B0E0E614F7040805190520F481E036
:1005200090E0A0E0B0E0BA01A901480F591F6A1F8E
:100530007B1FAA0CBB1CCC1CDD1C97FE08C081E0F5
:1005400090E0A0E0B0E0A82AB92ACA2ADB2A3196B6
:10055000E032F10549F0660C771C881C991C569412
:10056000479437942794C3CFFA85EA892B893C892D
:100570008B859C85280F391F2E5F3F4F17C0CA01FE
:1005800081709070892B61F016950795F794E79428
:1005900080E090E0A0E0B0E8E82AF92A0A2B1B2BC3
:1005A00076956795579547952F5F3F4F77FDE7CF36
:1005B0000CC0440F551F661F771F17FD4160EE0CDE
:1005C000FF1C001F111F21503040403090E05907A0
:1005D00090E0690790E4790760F32B8F3C8FDB0193
:1005E000CA018F779070A070B07080349105A1051A
:1005F000B10561F447FD0AC0E114F10401051105DC
:1006000029F0405C5F4F6F4F7F4F40781A8EFE1786
:1006100011F081E08A8F4D8F5E8F6F8F78A383E01A
:10062000898FCE0149960E94FD03A096E2E10C94C9
:100630006518A8E1B0E0EFE1F3E00C945518698388
:100640007A838B839C832D833E834F83588789E0F5
:10065000E82EF12CEC0EFD1ECE010196B7010E9492
:10066000D2048E010F5E1F4FCE010596B8010E9485
:10067000D2048985823040F08989823028F0C70110
:10068000B8010E944A0501C08FEF6896E6E00C941D
:100690007118A8E1B0E0EFE4F3E00C945518698319
:1006A0007A838B839C832D833E834F83588789E095
:1006B000E82EF12CEC0EFD1ECE010196B7010E9432
:1006C000D2048E010F5E1F4FCE010596B8010E9425
:1006D000D2048985823040F08989823028F0C701B0
:1006E000B8010E944A0501C08FEF6896E6E00C94BD
:1006F0007118A8E1B0E0EFE7F3E00C9455186983B6
:100700007A838B839C832D833E834F83588789E034
:10071000E82EF12CEC0EFD1ECE010196B7010E94D1
:10072000D2048E010F5E1F4FCE010596B8010E94C4
:10073000D2048985823040F08989823028F0C7014F
:10074000B8010E944A0501C081E06896E6E00C9479
:100750007118ACE0B0E0EFEAF3E00C94591869834B
:100760007A838B839C83CE010196BE016B5F7F4FA2
:100770000E94D2048D81823061F1823050F1843048
:1007800021F48E81882351F12EC02F81388537FDC9
:1007900020C06E812F3131051CF06623F9F023C093
:1007A0008EE190E0821B930B29853A854B855C8511
:1007B00004C056954795379527958A95D2F76623B5
:1007C000B1F050954095309521953F4F4F4F5F4F79
:1007D0000EC020E030E040E050E009C02FEF3FEFD6
:1007E0004FEF5FE704C020E030E040E050E8B9019F
:1007F000CA012C96E2E00C947518DF92EF92FF92FA
:100800000F931F93FC01E480F58006811781D1804E
:100810008081823048F480E090E0A0E1B0E0E82AF6
:10082000F92A0A2B1B2BA5C0843009F49FC0823003
:1008300021F4EE24FF24870105C0E114F104010531
:10084000110519F4E0E0F0E096C0628173819FEF3A
:10085000623879070CF05BC022E83FEF261B370BAC
:100860002A3131052CF020E030E040E050E02AC091
:10087000B801A701022E04C0769567955795479554
:100880000A94D2F781E090E0A0E0B0E004C0880FC5
:10089000991FAA1FBB1F2A95D2F70197A109B10979
:1008A0008E219F21A023B1230097A105B10521F03E
:1008B00081E090E0A0E0B0E09A01AB01282B392B59
:1008C0004A2B5B2BDA01C9018F779070A070B07052
:1008D00080349105A105B10539F427FF09C0205CDA
:1008E0003F4F4F4F5F4F04C0215C3F4F4F4F5F4F13
:1008F000E0E0F0E02030A0E03A07A0E04A07A0E402
:100900005A0710F0E1E0F0E079018A0127C0603871
:10091000710564F5FB01E158FF4FD801C7018F77DE
:100920009070A070B07080349105A105B10539F4C4
:10093000E7FE0DC080E490E0A0E0B0E004C08FE3EB
:1009400090E0A0E0B0E0E80EF91E0A1F1B1F17FFA1
:1009500005C016950795F794E794319687E01695AC
:100960000795F794E7948A95D1F705C0EE24FF2404
:100970008701EFEFF0E06E2F679566276795902F60
:100980009F77D794DD24D7948E2F8695492F462BB9
:10099000582F5D29B701CA011F910F91FF90EF9069
:1009A000DF900895FC01DB01408151812281622F9B
:1009B0006F7770E0221F2227221F9381892F880FD3
:1009C000822B282F30E0991F9927991F11969C930D
:1009D000119721153105A9F54115510561057105DD
:1009E00011F482E037C082E89FEF13969C938E93B8
:1009F00012979A01AB0167E0220F331F441F551F66
:100A00006A95D1F783E08C930DC0220F331F441FEA
:100A1000551F12968D919C911397019713969C9355
:100A20008E931297203080E0380780E0480780E4FA
:100A3000580758F314962D933D934D935C93179755
:100A400008952F3F310579F4411551056105710570
:100A500019F484E08C93089564FF03C081E08C93C3
:100A600012C01C9210C02F57304013963C932E9307
:100A7000129783E08C9387E0440F551F661F771F02
:100A80008A95D1F7706414964D935D936D937C9322
:100A9000179708951F93DC01FB019C91923008F495
:100AA00047C08081823008F443C0943051F41196DD
:100AB0001C91843099F58181682F70E0611B710968
:100AC0003FC0843021F0923031F48230B9F181811D
:100AD000882389F12DC011961C9111978230F1F075
:100AE00081811817D9F412962D913C911397828128
:100AF00093818217930794F028173907BCF0149656
:100B00008D919D910D90BC91A02D248135814681C0
:100B10005781281739074A075B0718F4112341F05A
:100B20000AC082179307A407B50740F4112319F0F0
:100B300061E070E005C06FEF7FEF02C060E070E041
:100B4000CB011F910895DF93CF9300D0CDB7DEB7CF
:100B500089836A8389816A8141E00E94E8060F9057
:100B60000F90CF91DF910895DF93CF9300D0CDB751
:100B7000DEB789836A8389816A8140E00E94E80642
:100B80000F900F90CF91DF910895DF93CF93CDB762
:100B9000DEB72D970FB6F894DEBF0FBECDBF8983A9
:100BA0006A834B838981843008F009C18A81883047
:100BB00008F005C18B81823008F001C18981282F9E
:100BC00030E03D872C878C859D858130910509F427
:100BD0004FC02C853D85223031052CF48C859D85B8
:100BE000009771F0ECC02C853D852230310509F469
:100BF00077C08C859D858330910509F4A9C0DFC03D
:100C00008B81282F30E03B872A878A859B85009738
:100C100031F02A853B8521303105B1F0D0C0AAE3FF
:100C2000B0E0EAE3F0E08081482F8A81282F30E0AD
:100C300081E090E0022E02C0880F991F0A94E2F72B
:100C4000809584238C93BBC0AAE3B0E0EAE3F0E094
:100C50008081482F8A81282F30E081E090E0022EA9
:100C600002C0880F991F0A94E2F7842B8C93A7C0C7
:100C70008B81282F30E039872887888599850097D0
:100C800031F02885398521303105B1F098C0A7E3CE
:100C9000B0E0E7E3F0E08081482F8A81282F30E040
:100CA00081E090E0022E02C0880F991F0A94E2F7BB
:100CB000809584238C9383C0A7E3B0E0E7E3F0E062
:100CC0008081482F8A81282F30E081E090E0022E39
:100CD00002C0880F991F0A94E2F7842B8C936FC08F
:100CE0008B81282F30E03F832E838E819F81009758
:100CF00031F02E813F8121303105B1F060C0A4E395
:100D0000B0E0E4E3F0E08081482F8A81282F30E0D2
:100D100081E090E0022E02C0880F991F0A94E2F74A
:100D2000809584238C934BC0A4E3B0E0E4E3F0E02F
:100D30008081482F8A81282F30E081E090E0022EC8
:100D400002C0880F991F0A94E2F7842B8C9337C056
:100D50008B81282F30E03D832C838C819D810097EF
:100D600031F02C813D8121303105B1F028C0A1E363
:100D7000B0E0E1E3F0E08081482F8A81282F30E065
:100D800081E090E0022E02C0880F991F0A94E2F7DA
:100D9000809584238C9313C0A1E3B0E0E1E3F0E0FD
:100DA0008081482F8A81282F30E081E090E0022E58
:100DB00002C0880F991F0A94E2F7842B8C932D961A
:100DC0000FB6F894DEBF0FBECDBFCF91DF9108956F
:100DD000DF93CF93CDB7DEB72D970FB6F894DEBF74
:100DE0000FBECDBF89836A834B838981843008F02D
:100DF00009C18A81883008F005C18B81823008F0F2
:100E000001C18981282F30E03D872C878C859D8505
:100E10008130910509F44FC02C853D852230310584
:100E20002CF48C859D85009771F0ECC02C853D8558
:100E30002230310509F477C08C859D85833091057A
:100E400009F4A9C0DFC08B81282F30E03B872A87B7
:100E50008A859B85009731F02A853B8521303105B5
:100E6000B1F0D0C0ABE3B0E0EBE3F0E08081482F1D
:100E70008A81282F30E081E090E0022E02C0880FA6
:100E8000991F0A94E2F7809584238C93BBC0ABE34F
:100E9000B0E0EBE3F0E08081482F8A81282F30E03A
:100EA00081E090E0022E02C0880F991F0A94E2F7B9
:100EB000842B8C93A7C08B81282F30E0398728871B
:100EC00088859985009731F028853985213031054D
:100ED000B1F098C0A8E3B0E0E8E3F0E08081482FEB
:100EE0008A81282F30E081E090E0022E02C0880F36
:100EF000991F0A94E2F7809584238C9383C0A8E31A
:100F0000B0E0E8E3F0E08081482F8A81282F30E0CC
:100F100081E090E0022E02C0880F991F0A94E2F748
:100F2000842B8C936FC08B81282F30E03F832E83DE
:100F30008E819F81009731F02E813F8121303105D4
:100F4000B1F060C0A5E3B0E0E5E3F0E08081482FB8
:100F50008A81282F30E081E090E0022E02C0880FC5
:100F6000991F0A94E2F7809584238C934BC0A5E3E4
:100F7000B0E0E5E3F0E08081482F8A81282F30E05F
:100F800081E090E0022E02C0880F991F0A94E2F7D8
:100F9000842B8C9337C08B81282F30E03D832C83AA
:100FA0008C819D81009731F02C813D81213031056C
:100FB000B1F028C0A2E3B0E0E2E3F0E08081482F86
:100FC0008A81282F30E081E090E0022E02C0880F55
:100FD000991F0A94E2F7809584238C9313C0A2E3AF
:100FE000B0E0E2E3F0E08081482F8A81282F30E0F2
:100FF00081E090E0022E02C0880F991F0A94E2F768
:10100000842B8C932D960FB6F894DEBF0FBECDBF08
:10101000CF91DF910895DF93CF9300D000D00F924E
:10102000CDB7DEB78A836B838A81843008F06BC0CA
:101030008B81883008F067C08A81282F30E03D839B
:101040002C834C815D814130510541F18C819D8122
:101050008230910534F42C813D812115310561F0F8
:1010600052C04C815D814230510551F18C819D818E
:1010700083309105B9F147C0E9E3F0E08081282F82
:1010800030E08B81882F90E0A90102C055954795EB
:101090008A95E2F7CA018170898335C0E6E3F0E002
:1010A0008081282F30E08B81882F90E0A90102C039
:1010B000559547958A95E2F7CA018170898323C0C7
:1010C000E3E3F0E08081282F30E08B81882F90E0EF
:1010D000A90102C0559547958A95E2F7CA0181702A
:1010E000898311C0E0E3F0E08081282F30E08B811C
:1010F000882F90E0A90102C0559547958A95E2F79F
:10110000CA018170898389810F900F900F900F9091
:101110000F90CF91DF910895DF93CF9300D000D04F
:10112000CDB7DEB789836A838981843008F072C0C5
:101130008A81883008F06EC08981282F30E03C8396
:101140002B838B819C818130910549F12B813C81DE
:10115000223031052CF48B819C81009761F05AC0BC
:101160002B813C812230310571F18B819C81833050
:101170009105E9F14FC0ABE3B0E0EBE3F0E0808133
:10118000482F8A81282F30E081E090E0022E02C0B3
:10119000880F991F0A94E2F784278C933BC0A8E339
:1011A000B0E0E8E3F0E08081482F8A81282F30E02A
:1011B00081E090E0022E02C0880F991F0A94E2F7A6
:1011C00084278C9327C0A5E3B0E0E5E3F0E08081BD
:1011D000482F8A81282F30E081E090E0022E02C063
:1011E000880F991F0A94E2F784278C9313C0A2E317
:1011F000B0E0E2E3F0E08081482F8A81282F30E0E0
:1012000081E090E0022E02C0880F991F0A94E2F755
:1012100084278C930F900F900F900F90CF91DF91B8
:101220000895DF93CF9300D000D0CDB7DEB7898388
:101230006A838981843090F58981282F30E03C834E
:101240002B838B819C8181309105D1F02B813C8156
:10125000223031052CF48B819C81009761F01EC0F7
:101260002B813C812230310581F08B819C81833040
:10127000910581F013C0EAE3F0E08A8180830EC01B
:10128000E7E3F0E08A81808309C0E4E3F0E08A814B
:10129000808304C0E1E3F0E08A8180830F900F90A7
:1012A0000F900F90CF91DF910895DF93CF9300D0EF
:1012B00000D0CDB7DEB789836A838981843090F509
:1012C0008981282F30E03C832B838B819C81813066
:1012D0009105D1F02B813C81223031052CF48B819A
:1012E0009C81009761F01EC02B813C81223031052A
:1012F00081F08B819C818330910581F013C0EBE3F9
:10130000F0E08A8180830EC0E8E3F0E08A81808388
:1013100009C0E5E3F0E08A81808304C0E2E3F0E005
:101320008A8180830F900F900F900F90CF91DF9163
:101330000895DF93CF93CDB7DEB7EAE3F0E087E01F
:101340008083E7E3F0E088E08083E4E3F0E08FEF80
:101350008083E1E3F0E08AE38083EBE3F0E0108256
:10136000E8E3F0E01082E5E3F0E01082E2E3F0E091
:101370001082CF91DF910895DF93CF93CDB7DEB781
:101380002F970FB6F894DEBF0FBECDBF8F8783E0D7
:1013900063E040E00E94E80683E064E040E00E94F1
:1013A000E80682E06F850E94550983E065E041E030
:1013B0000E94E80680E090E0A0E0B0E48B879C8784
:1013C000AD87BE876B857C858D859E8520E030E06E
:1013D0004AEF54E40E941F02DC01CB018F839887FF
:1013E000A987BA876F81788589859A8520E030E062
:1013F00040E85FE30E94790388232CF481E090E0C9
:101400009E838D833FC06F81788589859A8520E092
:101410003FEF4FE757E40E94190318164CF56B8510
:101420007C858D859E8520E030E040E251E40E947D
:101430001F02DC01CB01BC01CD010E944900DC018F
:10144000CB019E838D830FC088EC90E09C838B83BF
:101450008B819C810197F1F79C838B838D819E8189
:1014600001979E838D838D819E81009769F714C0BB
:101470006F81788589859A850E944900DC01CB01BE
:101480009E838D838D819E819A83898389819A81B0
:101490000197F1F79A83898383E065E040E00E9439
:1014A000E8062F960FB6F894DEBF0FBECDBFCF91E2
:1014B000DF910895DF93CF93CDB7DEB72F970FB6A7
:1014C000F894DEBF0FBECDBF8F8783E063E041E0BD
:1014D0000E94E80683E064E040E00E94E80682E0C3
:1014E0006F850E94550983E065E041E00E94E806AF
:1014F00080E090E0A0E0B0E48B879C87AD87BE875A
:101500006B857C858D859E8520E030E04AEF54E434
:101510000E941F02DC01CB018F839887A987BA87BD
:101520006F81788589859A8520E030E040E85FE327
:101530000E94790388232CF481E090E09E838D83C0
:101540003FC06F81788589859A8520E03FEF4FE71E
:1015500057E40E94190318164CF56B857C858D8520
:101560009E8520E030E040E251E40E941F02DC0151
:10157000CB01BC01CD010E944900DC01CB019E835F
:101580008D830FC088EC90E09C838B838B819C8142
:101590000197F1F79C838B838D819E8101979E83B8
:1015A0008D838D819E81009769F714C06F81788546
:1015B00089859A850E944900DC01CB019E838D8339
:1015C0008D819E819A83898389819A810197F1F720
:1015D0009A83898383E065E040E00E94E8062F96C5
:1015E0000FB6F894DEBF0FBECDBFCF91DF91089547
:1015F0000F931F93DF93CF93CDB7DEB7C654D04080
:101600000FB6F894DEBF0FBECDBFFE01ED5BFF4FFE
:1016100080E090E0A0EFB1E480839183A283B38364
:101620008E01015C1F4FFE01ED5BFF4F60817181F8
:101630008281938120E030E04AEF54E40E941F024F
:10164000DC01CB01F80180839183A283B383FE0187
:10165000FF96608171818281938120E030E040E8D3
:101660005FE30E94790388232CF481E090E09EAF31
:101670008DAF46C0FE01FF966081718182819381AA
:1016800020E03FEF4FE757E40E941903181664F576
:10169000FE01ED5BFF4F608171818281938120E0CB
:1016A00030E040E251E40E941F02DC01CB01BC01AA
:1016B000CD010E944900DC01CB019EAF8DAF0FC070
:1016C00088EC90E09CAF8BAF8BAD9CAD0197F1F7B0
:1016D0009CAF8BAF8DAD9EAD01979EAF8DAF8DADA5
:1016E0009EAD009769F716C0FE01FF96608171817B
:1016F000828193810E944900DC01CB019EAF8DAFB6
:101700008DAD9EAD9AAF89AF89AD9AAD0197F1F7D6
:101710009AAF89AF88E30E94BC0980E090E0A0E81E
:10172000BFE38DAB9EABAFABB8AF6DA97EA98FA960
:1017300098AD20E030E04AEF54E40E941F02DC0143
:10174000CB0189AB9AABABABBCAB69A97AA98BA92E
:101750009CA920E030E040E85FE30E947903882301
:101760002CF481E090E098AB8FA73FC069A97AA9DB
:101770008BA99CA920E03FEF4FE757E40E94190393
:1017800018164CF56DA97EA98FA998AD20E030E020
:1017900040E251E40E941F02DC01CB01BC01CD01FB
:1017A0000E944900DC01CB0198AB8FA70FC088ECE9
:1017B00090E09EA78DA78DA59EA50197F1F79EA706
:1017C0008DA78FA598A9019798AB8FA78FA598A9EA
:1017D000009769F714C069A97AA98BA99CA90E94EE
:1017E0004900DC01CB0198AB8FA78FA598A99CA7D6
:1017F0008BA78BA59CA50197F1F79CA78BA78FE0E2
:101800000E94BC0980E090E0A0E8BFE38FA398A706
:10181000A9A7BAA76FA178A589A59AA520E030E06D
:101820004AEF54E40E941F02DC01CB018BA39CA36E
:10183000ADA3BEA36BA17CA18DA19EA120E030E051
:1018400040E85FE30E94790388232CF481E090E074
:101850009AA389A33FC06BA17CA18DA19EA120E08A
:101860003FEF4FE757E40E94190318164CF56FA19C
:1018700078A589A59AA520E030E040E251E40E94D5
:101880001F02DC01CB01BC01CD010E944900DC013B
:10189000CB019AA389A30FC088EC90E098A38F8F07
:1018A0008F8D98A10197F1F798A38F8F89A19AA1A5
:1018B00001979AA389A389A19AA1009769F714C0F7
:1018C0006BA17CA18DA19EA10E944900DC01CB01EE
:1018D0009AA389A389A19AA19E8F8D8F8D8D9E8DAC
:1018E0000197F1F79E8F8D8F81E00E94BC0980E007
:1018F00090E0A0E0B0E4898F9A8FAB8FBC8F698DA8
:101900007A8D8B8D9C8D20E030E04AEF54E40E946C
:101910001F02DC01CB018D8B9E8BAF8BB88F6D8945
:101920007E898F89988D20E030E040E85FE30E9457
:10193000790388232CF481E090E09C8B8B8B3FC053
:101940006D897E898F89988D20E03FEF4FE757E4BE
:101950000E94190318164CF5698D7A8D8B8D9C8D1C
:1019600020E030E040E251E40E941F02DC01CB01A4
:10197000BC01CD010E944900DC01CB019C8B8B8B0B
:101980000FC088EC90E09A8B898B89899A8901979E
:10199000F1F79A8B898B8B899C8901979C8B8B8B18
:1019A0008B899C89009769F714C06D897E898F891E
:1019B000988D0E944900DC01CB019C8B8B8B8B891D
:1019C0009C89988B8F878F8598890197F1F7988BE1
:1019D0008F8786E00E94BC0980E090E0A0E8BFE32A
:1019E0008B879C87AD87BE876B857C858D859E8523
:1019F00020E030E04AEF54E40E941F02DC01CB01FA
:101A00008F839887A987BA876F81788589859A851A
:101A100020E030E040E85FE30E94790388232CF463
:101A200081E090E09E838D833FC06F8178858985BA
:101A30009A8520E03FEF4FE757E40E9419031816FC
:101A40004CF56B857C858D859E8520E030E040E2FD
:101A500051E40E941F02DC01CB01BC01CD010E94B8
:101A60004900DC01CB019E838D830FC088EC90E0A0
:101A70009C838B838B819C810197F1F79C838B8363
:101A80008D819E8101979E838D838D819E8100979C
:101A900069F714C06F81788589859A850E9449000D
:101AA000DC01CB019E838D838D819E819A83898306
:101AB00089819A810197F1F79A838983CA5BDF4F05
:101AC0000FB6F894DEBF0FBECDBFCF91DF911F914F
:101AD0000F910895DF93CF93CDB7DEB72E970FB652
:101AE000F894DEBF0FBECDBF81E00E94BC0980E04C
:101AF00090E0A0E0B0E48B879C87AD87BE876B85C4
:101B00007C858D859E8520E030E04AEF54E40E947C
:101B10001F02DC01CB018F839887A987BA876F8169
:101B2000788589859A8520E030E040E85FE30E946F
:101B3000790388232CF481E090E09E838D833FC05D
:101B40006F81788589859A8520E03FEF4FE757E4DC
:101B50000E94190318164CF56B857C858D859E8532
:101B600020E030E040E251E40E941F02DC01CB01A2
:101B7000BC01CD010E944900DC01CB019E838D8315
:101B80000FC088EC90E09C838B838B819C810197B4
:101B9000F1F79C838B838D819E8101979E838D833A
:101BA0008D819E81009769F714C06F817885898542
:101BB0009A850E944900DC01CB019E838D838D8133
:101BC0009E819A83898389819A810197F1F79A830B
:101BD00089832E960FB6F894DEBF0FBECDBFCF918E
:101BE000DF910895DF93CF9300D0CDB7DEB79A830E
:101BF00089830BC0E981FA81208189819A810196CC
:101C00009A838983822F0E945A0AE981FA8180810E
:101C1000882381F70F900F90CF91DF910895DF9384
:101C2000CF9300D000D0CDB7DEB789836A83898196
:101C3000282F30E03C832B838B819C818130910560
:101C400031F02B813C812230310531F009C08A818D
:101C500081580E94BC0904C08A8181540E94BC0939
:101C60000F900F900F900F90CF91DF910895EF920A
:101C7000FF920F931F93DF93CF93CDB7DEB72897D3
:101C80000FB6F894DEBF0FBECDBF6D837E838F830A
:101C9000988781E090E0A0E0B0E089839A83AB83ED
:101CA000BC838D819E81AF81B8850097A105B10568
:101CB000D1F580E30E945A0A36C089819A81AB81AE
:101CC000BC812AE030E040E050E0BC01CD010E9440
:101CD00008187B018C018D819E81AF81B8852AE037
:101CE00030E040E050E0BC01CD010E942718DC014B
:101CF000CB018E0D9F1DA01FB11F89839A83AB83DB
:101D0000BC838D819E81AF81B8852AE030E040E0C0
:101D100050E0BC01CD010E942718DA01C9018D8372
:101D20009E83AF83B8878D819E81AF81B8850097F0
:101D3000A105B10511F623C089819A81AB81BC81CF
:101D40002AE030E040E050E0BC01CD010E942718BD
:101D5000DC01CB01805D0E945A0A89819A81AB81A6
:101D6000BC812AE030E040E050E0BC01CD010E949F
:101D70002718DA01C90189839A83AB83BC838981DF
:101D80009A81AB81BC8181309105A105B105A1F695
:101D900028960FB6F894DEBF0FBECDBFCF91DF916E
:101DA0001F910F91FF90EF900895DF93CF93CDB7E0
:101DB000DEB727970FB6F894DEBF0FBECDBF9C836A
:101DC0008B836D834E832F838D81882F90E0880FC6
:101DD000991F880F991F880F991F8A838A818064B1
:101DE0008A838A810E94BC0919820EC08981282FAA
:101DF00030E08B819C81FC01E20FF31F80810E9407
:101E00005A0A89818F5F89838981883078F38E812E
:101E10006F810E940F0E8D810E945A0A27960FB67D
:101E2000F894DEBF0FBECDBFCF91DF910895DF9351
:101E3000CF9300D0CDB7DEB789836A8389816A8169
:101E400041E00E94E8060F900F90CF91DF91089536
:101E5000DF93CF9300D0CDB7DEB789836A838981C2
:101E60006A8140E00E94E8060F900F90CF91DF91C9
:101E70000895DF93CF9300D0CDB7DEB789836A830F
:101E80008981482F50E08A81282F30E0CA01B901AA
:101E90000E948C080F900F90CF91DF910895DF93EF
:101EA000CF9300D0CDB7DEB789836A8389816A81F9
:101EB00041E00E94E8060F900F90CF91DF910895C6
:101EC000DF93CF9300D0CDB7DEB789836A83898152
:101ED0006A8140E00E94E8060F900F90CF91DF9159
:101EE0000895DF93CF93CDB7DEB7A3E5B0E0E3E588
:101EF000F0E0808180648C93A3E5B0E0E3E5F0E05E
:101F0000808188608C93A9E5B0E0E9E5F0E080810C
:101F10008E7F8C93A9E5B0E0E9E5F0E080818D7FCC
:101F20008C93ECE5F0E01082A3E5B0E0E3E5F0E0AF
:101F30008081887C8C93A3E5B0E0E3E5F0E08081CC
:101F400082628C93CF91DF910895DF93CF930F92AC
:101F5000CDB7DEB78983E2E5F0E0898180830F9019
:101F6000CF91DF910895DF93CF93CDB7DEB7A3E58F
:101F7000B0E0E3E5F0E08081887F8C93CF91DF9142
:101F80000895DF93CF930F92CDB7DEB78983ECE549
:101F9000F0E0898180830F90CF91DF910895DF93E6
:101FA000CF9300D0CDB7DEB79A83898389819A8198
:101FB000009731F089819A81909341048093400485
:101FC0000F900F90CF91DF910895DF93CF9300D0C2
:101FD000CDB7DEB79A83898389819A81009731F0E2
:101FE00089819A8190934304809342040F900F90CB
:101FF000CF91DF9108951F920F920FB60F92112487
:102000002F933F934F935F936F937F938F939F9300
:10201000AF93BF93EF93FF93DF93CF93CDB7DEB72B
:102020008091420490914304009729F0E09142048A
:10203000F09143040995CF91DF91FF91EF91BF910A
:10204000AF919F918F917F916F915F914F913F9150
:102050002F910F900FBE0F901F9018951F920F9207
:102060000FB60F9211242F933F934F935F936F936B
:102070007F938F939F93AF93BF93EF93FF93DF93E0
:10208000CF93CDB7DEB78091400490914104009783
:1020900029F0E0914004F09141040995CF91DF913E
:1020A000FF91EF91BF91AF919F918F917F916F9130
:1020B0005F914F913F912F910F900FBE0F901F9006
:1020C0001895DF93CF9300D0CDB7DEB783E390E0D0
:1020D0009A838983E9E2F0E089818083E0E4F0E09B
:1020E00089819A81892F99278083AAE2B0E0EAE268
:1020F000F0E080818B7F8C93E0E4F0E086E88083E1
:10210000AAE2B0E0EAE2F0E0808188608C93AAE283
:10211000B0E0EAE2F0E0808180618C930F900F9054
:10212000CF91DF910895DF93CF930F92CDB7DEB7B4
:102130008983EBE2F0E08081829586958770882F15
:1021400090E0817090700097A1F3ECE2F0E089815B
:102150008083EBE2F0E08081829586958770882FFE
:1021600090E0817090700097A1F3ABE2B0E0EBE2F9
:10217000F0E0808180648C930F90CF91DF9108957F
:10218000DF93CF9300D000D00F92CDB7DEB78D8311
:1021900019821A821B821C8217C089819A81AB81A5
:1021A000BC810196A11DB11D89839A83AB83BC8339
:1021B00089819A81AB81BC81883823E1920720E034
:1021C000A20720E0B20761F0EBE2F0E080818295A7
:1021D00086958770882F90E0817090700097E9F263
:1021E00089819A81AB81BC81883823E1920720E004
:1021F000A20720E0B20799F119821A821B821C8281
:10220000ECE2F0E08D81808317C089819A81AB81F7
:10221000BC810196A11DB11D89839A83AB83BC83C8
:1022200089819A81AB81BC81883823E1920720E0C3
:10223000A20720E0B20761F0EBE2F0E08081829536
:1022400086958770882F90E0817090700097E9F2F2
:10225000ABE2B0E0EBE2F0E0808180648C930F9021
:102260000F900F900F900F90CF91DF910895DF9313
:10227000CF9300D0CDB7DEB79A8389830BC0E981B5
:10228000FA81208189819A8101969A838983822F9C
:102290000E94C010E981FA818081882381F70F9024
:1022A0000F90CF91DF910895DF93CF930F92CDB729
:1022B000DEB78983EBE2F0E08081829586958770B6
:1022C000882F90E081709070882321F0ECE2F0E09C
:1022D000898180830F90CF91DF910895DF93CF9311
:1022E000CDB7DEB7EBE2F0E080818823DCF7ECE2EB
:1022F000F0E08081CF91DF9108950F931F93DF93DA
:10230000CF9300D00F92CDB7DEB79B838A8319821B
:102310008981282F30E08A819B818C01020F131F55
:102320000E946E11F80180830FC089818F5F8983BD
:102330008981282F30E08A819B818C01020F131F35
:102340000E946E11F80180838981282F30E08A81F4
:102350009B81FC01E20FF31F80818D3331F789816E
:10236000282F30E08A819B81FC01E20FF31F10824D
:102370000F900F900F90CF91DF911F910F910895C3
:10238000DF93CF93CDB7DEB7ECE2F0E08081CF9161
:10239000DF910895DF93CF9300D00F92CDB7DEB7D2
:1023A0008FEF8B831A8219820BC089819A810196E3
:1023B0009A83898389819A8123E18838920729F059
:1023C000EBE2F0E08081882384F789819A8123E120
:1023D0008838920721F0ECE2F0E080818B838B81DA
:1023E0000F900F900F90CF91DF910895DF93CF93CF
:1023F00000D00F92CDB7DEB789837B836A83898152
:10240000833080F48A819B81009761F08981882FD5
:1024100090E0880F991FFC01EC5BFB4F8A819B8148
:10242000918380830F900F900F90CF91DF9108954B
:102430001F920F920FB60F9211242F933F934F9339
:102440005F936F937F938F939F93AF93BF93EF931C
:10245000FF93DF93CF93CDB7DEB780914404909183
:102460004504009729F0E0914404F0914504099552
:10247000CF91DF91FF91EF91BF91AF919F918F919C
:102480007F916F915F914F913F912F910F900FBE70
:102490000F901F9018951F920F920FB60F92112454
:1024A0002F933F934F935F936F937F938F939F935C
:1024B000AF93BF93EF93FF93DF93CF93CDB7DEB787
:1024C0008091460490914704009729F0E0914604DA
:1024D000F09147040995CF91DF91FF91EF91BF9162
:1024E000AF919F918F917F916F915F914F913F91AC
:1024F0002F910F900FBE0F901F9018951F920F9263
:102500000FB60F9211242F933F934F935F936F93C6
:102510007F938F939F93AF93BF93EF93FF93DF933B
:10252000CF93CDB7DEB780914804909149040097CE
:1025300029F0E0914804F09149040995CF91DF9189
:10254000FF91EF91BF91AF919F918F917F916F918B
:102550005F914F913F912F910F900FBE0F901F9061
:102560001895DF93CF93CDB7DEB7AA970FB6F8943F
:10257000DEBF0FBECDBF1FA218A619A61AA61BA2AA
:102580001CA21DA21EA21F8E18A219A21AA21EC151
:1025900080E690E00E9437110E946A0D81E790E08A
:1025A0000E94F20D8AE494E00E947D111E8EFFC00D
:1025B00047E753E08E8D882F90E09C01220F331F58
:1025C000C901880F991F880F991F820F931F9A01C5
:1025D000280F391F8AE494E0B9010E9480180097FF
:1025E00009F0E2C081E090E0A0E0B0E08FA398A7FE
:1025F000A9A7BAA70E946A0D81E890E00E94F20D97
:1026000081E990E00E9437111D8ECAC08AE494E0EF
:102610000E947D114BED53E08E8D882F90E09C0140
:10262000220F331FC901880F991F880F991F820F2E
:10263000931F9A01280F391F8AE494E0B9010E9480
:102640008018009749F481E090E0A0E0B0E08F8F1F
:1026500098A3A9A3BAA3A8C08D8D823090F40E943C
:102660006A0D83EA90E00E94F20D82E061E00E9430
:102670000F0E82EB90E00E94F20D8CEB90E00E9436
:1026800037118D8D823009F088C00E946A0D88ED67
:1026900090E00E94F20D87EE90E00E94371180E0FA
:1026A00061E00E94A30588EF90E00E94371180E06E
:1026B00090E4ACE9B5E4898F9A8FAB8FBC8F698DBC
:1026C0007A8D8B8D9C8D20E030E04AEF54E40E949F
:1026D0001F02DC01CB018D8B9E8BAF8BB88F6D8978
:1026E0007E898F89988D20E030E040E85FE30E948A
:1026F000790388232CF481E090E09C8B8B8B3FC086
:102700006D897E898F89988D20E03FEF4FE757E4F0
:102710000E94190318164CF5698D7A8D8B8D9C8D4E
:1027200020E030E040E251E40E941F02DC01CB01D6
:10273000BC01CD010E944900DC01CB019C8B8B8B3D
:102740000FC088EC90E09A8B898B89899A890197D0
:10275000F1F79A8B898B8B899C8901979C8B8B8B4A
:102760008B899C89009769F714C06D897E898F8950
:10277000988D0E944900DC01CB019C8B8B8B8B894F
:102780009C89988B8F878F8598890197F1F7988B13
:102790008F8780E061E00E94B4058D8D8F5F8D8F03
:1027A0008D8D833008F432CF8E8D8F5F8E8F8E8D1E
:1027B0008A3008F4FDCE8BA19CA1ADA1BEA10196EB
:1027C000A11DB11D8BA39CA3ADA3BEA38FA198A5F2
:1027D000A9A5BAA50097A105B10551F48BA19CA1AB
:1027E000ADA1BEA183309105A105B10508F4D0CEFD
:1027F0008FA198A5A9A5BAA50097A105B10509F0D3
:102800008EC08BA19CA1ADA1BEA183309105A10575
:10281000B10509F084C080E061E00E94A3050E9438
:102820006A0D88ED90E00E94F20D88EF90E00E9422
:10283000371180E090E4ACE9B5E48B879C87AD87E5
:10284000BE876B857C858D859E8520E030E04AEFD4
:1028500054E40E941F02DC01CB018F839887A98773
:10286000BA876F81788589859A8520E030E040E8D5
:102870005FE30E94790388232CF481E090E09E833B
:102880008D833FC06F81788589859A8520E03FEFF1
:102890004FE757E40E94190318164CF56B857C85A9
:1028A0008D859E8520E030E040E251E40E941F02C9
:1028B000DC01CB01BC01CD010E944900DC01CB0150
:1028C0009E838D830FC088EC90E09C838B838B81EB
:1028D0009C810197F1F79C838B838D819E81019769
:1028E0009E838D838D819E81009769F714C06F81CF
:1028F000788589859A850E944900DC01CB019E83F9
:102900008D838D819E819A83898389819A810197A4
:10291000F1F79A83898380E061E00E94B4058F8D8E
:10292000AA960FB6F894DEBF0FBECDBFCF91DF9150
:102930000895DF93CF93CDB7DEB762970FB6F894C3
:10294000DEBF0FBECDBF188ABDC00E946A0D8CE1EC
:1029500091E00E94F20D82E061E00E940F0E8CE295
:1029600091E00E94F20D8CE391E00E9437110E94E9
:102970006E118F878F85282F30E03A8B298B8989BC
:102980009A8986349105E1F029893A8927343105FD
:1029900034F489899A898434910579F017C029899A
:1029A0003A892C34310531F089899A89833591052A
:1029B00051F00CC00E946F1585C00E94231782C081
:1029C0000E943B167FC081E0888B7CC00E946A0D0C
:1029D00085EB91E00E94F20D8BEB91E00E943711A4
:1029E00080E090E0A8E4B3E48B879C87AD87BE8746
:1029F0006B857C858D859E8520E030E04AEF54E430
:102A00000E941F02DC01CB018F839887A987BA87B8
:102A10006F81788589859A8520E030E040E85FE322
:102A20000E94790388232CF481E090E09E838D83BB
:102A30003FC06F81788589859A8520E03FEF4FE719
:102A400057E40E94190318164CF56B857C858D851B
:102A50009E8520E030E040E251E40E941F02DC014C
:102A6000CB01BC01CD010E944900DC01CB019E835A
:102A70008D830FC088EC90E09C838B838B819C813D
:102A80000197F1F79C838B838D819E8101979E83B3
:102A90008D838D819E81009769F714C06F81788541
:102AA00089859A850E944900DC01CB019E838D8334
:102AB0008D819E819A83898389819A810197F1F71B
:102AC0009A8389838889882309F43FCF62960FB659
:102AD000F894DEBF0FBECDBFCF91DF910895DF9395
:102AE000CF93CDB7DEB762970FB6F894DEBF0FBEB7
:102AF000CDBF188AB3C00E946A0D83EC91E00E949A
:102B0000F20D82E061E00E940F0E82ED91E00E94E2
:102B1000F20D89ED91E00E9437110E946E118F87AE
:102B20008F85282F30E03A8B298B89899A898F34B9
:102B3000910559F029893A892335310581F0898930
:102B40009A898634910531F00DC080E060E00E94E2
:102B5000170F84C080E060E00E94280F7FC081E0F2
:102B6000888B7CC00E946A0D85EB91E00E94F20D7B
:102B70008BEB91E00E94371180E090E0A8E4B3E491
:102B80008B879C87AD87BE876B857C858D859E8571
:102B900020E030E04AEF54E40E941F02DC01CB0148
:102BA0008F839887A987BA876F81788589859A8569
:102BB00020E030E040E85FE30E94790388232CF4B2
:102BC00081E090E09E838D833FC06F817885898509
:102BD0009A8520E03FEF4FE757E40E94190318164B
:102BE0004CF56B857C858D859E8520E030E040E24C
:102BF00051E40E941F02DC01CB01BC01CD010E9407
:102C00004900DC01CB019E838D830FC088EC90E0EE
:102C10009C838B838B819C810197F1F79C838B83B1
:102C20008D819E8101979E838D838D819E810097EA
:102C300069F714C06F81788589859A850E9449005B
:102C4000DC01CB019E838D838D819E819A83898354
:102C500089819A810197F1F79A83898388898823EA
:102C600009F449CF62960FB6F894DEBF0FBECDBF10
:102C7000CF91DF910895DF93CF93CDB7DEB7629701
:102C80000FB6F894DEBF0FBECDBF188ACFC00E942A
:102C90006A0D84E392E00E94F20D82E061E00E94FE
:102CA0000F0E83E492E00E94F20D82E592E00E9412
:102CB00037110E946E118F878F85282F30E03A8B55
:102CC000298B89899A898F349105F9F029893A8964
:102CD000203531055CF489899A898634910589F01B
:102CE00029893A8928343105E1F024C089899A89F3
:102CF00083359105E1F029893A892435310559F068
:102D000019C080E00E94C10F91C00E94710F86E639
:102D10000E94C10F8BC00E94710F82EB0E94C10FF5
:102D200085C00E94710F8AEF0E94C10F7FC081E0B1
:102D3000888B7CC00E946A0D85EB91E00E94F20DA9
:102D40008BEB91E00E94371180E090E0A8E4B3E4BF
:102D50008B879C87AD87BE876B857C858D859E859F
:102D600020E030E04AEF54E40E941F02DC01CB0176
:102D70008F839887A987BA876F81788589859A8597
:102D800020E030E040E85FE30E94790388232CF4E0
:102D900081E090E09E838D833FC06F817885898537
:102DA0009A8520E03FEF4FE757E40E941903181679
:102DB0004CF56B857C858D859E8520E030E040E27A
:102DC00051E40E941F02DC01CB01BC01CD010E9435
:102DD0004900DC01CB019E838D830FC088EC90E01D
:102DE0009C838B838B819C810197F1F79C838B83E0
:102DF0008D819E8101979E838D838D819E81009719
:102E000069F714C06F81788589859A850E94490089
:102E1000DC01CB019E838D838D819E819A83898382
:102E200089819A810197F1F79A8389838889882318
:102E300009F42DCF62960FB6F894DEBF0FBECDBF5A
:102E4000CF91DF910895DF93CF93CDB7DEB762972F
:102E50000FB6F894DEBF0FBECDBF188AB7C00E9470
:102E60006A0D83EC91E00E94F20D82E061E00E9425
:102E70000F0E82ED91E00E94F20D81E193E00E943D
:102E800037110E946E118F878F85282F30E03A8B83
:102E9000298B89899A898F34910559F029893A8932
:102EA00023353105A1F089899A898634910541F04D
:102EB00011C080E090E062E070E00E944F0F86C099
:102EC00080E090E062E070E00E94600F7FC081E0EF
:102ED000888B7CC00E946A0D85EB91E00E94F20D08
:102EE0008BEB91E00E94371180E090E0A8E4B3E41E
:102EF0008B879C87AD87BE876B857C858D859E85FE
:102F000020E030E04AEF54E40E941F02DC01CB01D4
:102F10008F839887A987BA876F81788589859A85F5
:102F200020E030E040E85FE30E94790388232CF43E
:102F300081E090E09E838D833FC06F817885898595
:102F40009A8520E03FEF4FE757E40E9419031816D7
:102F50004CF56B857C858D859E8520E030E040E2D8
:102F600051E40E941F02DC01CB01BC01CD010E9493
:102F70004900DC01CB019E838D830FC088EC90E07B
:102F80009C838B838B819C810197F1F79C838B833E
:102F90008D819E8101979E838D838D819E81009777
:102FA00069F714C06F81788589859A850E944900E8
:102FB000DC01CB019E838D838D819E819A838983E1
:102FC00089819A810197F1F79A8389838889882377
:102FD00009F445CF62960FB6F894DEBF0FBECDBFA1
:102FE000CF91DF910895DF93CF930F92CDB7DEB7E6
:102FF0000E9499090E9461100E94F80A19820E9499
:10300000B112898389818130C9F70E949914F6CF62
:10301000629FD001739FF001829FE00DF11D649FBC
:10302000E00DF11D929FF00D839FF00D749FF00D48
:10303000659FF00D9927729FB00DE11DF91F639FE9
:10304000B00DE11DF91FBD01CF0111240895A1E2CA
:103050001A2EAA1BBB1BFD010DC0AA1FBB1FEE1F12
:10306000FF1FA217B307E407F50720F0A21BB30B5D
:10307000E40BF50B661F771F881F991F1A9469F7D9
:1030800060957095809590959B01AC01BD01CF0135
:1030900008952F923F924F925F926F927F928F92FC
:1030A0009F92AF92BF92CF92DF92EF92FF920F93D7
:1030B0001F93CF93DF93CDB7DEB7CA1BDB0B0FB6E1
:1030C000F894DEBF0FBECDBF09942A88398848889E
:1030D0005F846E847D848C849B84AA84B984C88434
:1030E000DF80EE80FD800C811B81AA81B981CE0F2B
:1030F000D11D0FB6F894DEBF0FBECDBFED01089510
:10310000FB01DC018D91019080190110D9F3990B1D
:063110000895F894FFCFC2
:10311600456E74657220557365726E616D650D0A34
:1031260000456E74657220557365726E616D653A01
:1031360000456E7465722070617373776F72643ABE
:1031460000456E7465722070617373776F726420C8
:103156000D0A0057726F6E672070617373776F7216
:10316600640074727920616761696E0057726F6ED0
:10317600672070617373776F72642074727920614F
:103186006761696E200D0A007761697420666F7247
:103196002035207365630057726F6E672070617308
:1031A60073776F72640D0A007761697420666F72B7
:1031B6002035207365636F6E647320746F20656EAF
:1031C60074657220616761696E0D0A004C3A4C4560
:1031D6004420202020443A444F4F5200463A46416C
:1031E6004E20202020533A4558495400546F2063FE
:1031F6006F6E74726F6C204C454420202020202076
:10320600456E746572284C290D0A546F20636F6EE3
:1032160074726F6C20444F4F522020202020456E40
:103226007465722844290D0A546F20636F6E747298
:103236006F6C2046414E202020202020456E74656C
:10324600722846290D0A546F20457869742020207B
:1032560020202020202020202020456E7465722802
:1032660053290D0A0057524F4E470057524F4E47AB
:103276000D0A004F3A4F4E2020202020463A4F4656
:103286004600533A4558495400546F205455524EFF
:10329600204C4544204F4E202020202020456E748F
:1032A6006572284F290D0A546F205455524E204CF2
:1032B6004544204F46462020202020456E746572E6
:1032C6002846290D0A546F2045786974202020204D
:1032D600202020202020202020456E74657228534F
:1032E600290D0A004F4E204F3A3120543A322048D9
:1032F6003A3300463A4F4646202020533A4558492D
:103306005400546F205455524E2046414E204F468D
:103316004620202020202020202020202020456E0E
:103326007465722846290D0A546F205455524E2052
:1033360046414E204F4E20444547524545203120B8
:1033460020202020456E746572284F290D0A546F7F
:10335600205455524E2046414E204F4E204445475C
:1033660052454520322020202020456E7465722863
:1033760054290D0A546F205455524E2046414E2072
:103386004F4E2044454752454520332020202020DB
:10339600456E7465722848290D0A546F2045786970
:1033A60074202020202020202020202020202020C3
:1033B600202020202020456E7465722853290D0A8E
:1033C60000546F205455524E20444F4F52204F4EBA
:1033D600202020202020456E746572284F290D0A72
:1033E600546F205455524E20444F4F52204F46465C
:1033F6002020202020456E7465722846290D0A5427
:103406006F2045786974202020202020202020204D
:1034160020202020456E7465722853290D0A00006D
:10342600000000000000006661726964610000002F
:103436000061796100000000000000617A7A610095
:1034460000000000006D656E6E6100000000006DFA
:103456006F68616D656400000061686D65640000F9
:103466000000006B6172696D00000000006F6D6105
:10347600720000000000006D617269616D0000005D
:103486000064616C696100000000003030300000AB
:103496000000000000313131000000000000003360
:1034A6003333000000000000003434340000000014
:1034B60000000032333200000000000000383838C7
:1034C6000000000000000032323200000000000060
:1034D6000031313131000000000000303030300062
:1034E6000000000000343434340000000000000006
:00000001FF
